{
  "_format": "hh-sol-artifact-1",
  "contractName": "XucreStaker",
  "sourceName": "contracts/XucreStaker.sol",
  "abi": [
    {
      "inputs": [
        {
          "internalType": "address",
          "name": "spender",
          "type": "address"
        },
        {
          "internalType": "address",
          "name": "token",
          "type": "address"
        },
        {
          "internalType": "address",
          "name": "vault",
          "type": "address"
        },
        {
          "internalType": "address",
          "name": "rewardToken",
          "type": "address"
        },
        {
          "internalType": "uint256",
          "name": "amount",
          "type": "uint256"
        }
      ],
      "name": "stakeTokens",
      "outputs": [],
      "stateMutability": "nonpayable",
      "type": "function"
    },
    {
      "inputs": [
        {
          "internalType": "address",
          "name": "spender",
          "type": "address"
        },
        {
          "internalType": "address",
          "name": "token",
          "type": "address"
        },
        {
          "internalType": "address",
          "name": "vault",
          "type": "address"
        },
        {
          "internalType": "address",
          "name": "rewardToken",
          "type": "address"
        },
        {
          "internalType": "uint256",
          "name": "amount",
          "type": "uint256"
        }
      ],
      "name": "withdrawTokens",
      "outputs": [],
      "stateMutability": "nonpayable",
      "type": "function"
    }
  ],
  "bytecode": "0x608080604052346100165761071a908161001b8239f35b5f80fdfe60a06040818152600480361015610014575f80fd5b5f925f3560e01c908163482bce691461033a575063859a83c414610036575f80fd5b3461025c57610044366105ef565b86516323b872dd60e01b8152602060808190526001600160a01b03808816838a0190815230818401526040810185905297989790969593949291908290819060600103818d8a87165af1908115610330578a91610311575b50156102cd57875163095ea7b360e01b81526080516001600160a01b03841688830190815260208101869052919290918391908290036040019082908d908a165af19081156102c35789916102a4575b501561026057908388921690813b1561025c578291602483928a519485938492632e1a7d4d60e01b84528b8401525af180156102525761023a575b5050168351906370a0823160e01b8252308383015260805182602481845afa9182156102305786926101f6575b508161015e578580f35b845163a9059cbb60e01b81526080516001600160a01b03909516938101938452602084019290925290929183919082908790829060400103925af19081156101ea576101b2925083916101bb575b506106a0565b5f808080808580f35b6080516101dd92503d81116101e3575b6101d58183610666565b810190610688565b5f6101ac565b503d6101cb565b505051903d90823e3d90fd5b9091506080513d60805111610229575b6102108183610666565b8160805191810103126102255751905f610154565b5f80fd5b503d610206565b85513d88823e3d90fd5b6102439061063e565b61024e57855f610127565b8580fd5b87513d84823e3d90fd5b8280fd5b865162461bcd60e51b815260805181870152601c60248201527f52657761726420746f6b656e20617070726f76616c206661696c6564000000006044820152606490fd5b6080516102bd92503d81116101e3576101d58183610666565b5f6100ec565b88513d8b823e3d90fd5b875162461bcd60e51b815260805181880152601c60248201527f52657761726420746f6b656e207472616e73666572206661696c6564000000006044820152606490fd5b60805161032a92503d81116101e3576101d58183610666565b5f61009c565b89513d8c823e3d90fd5b91929050346102255761034c366105ef565b6323b872dd60e01b87526001600160a01b038581168989019081523060208281019190915260408201849052989195939492938616919089908290819060600103815f865af19081156105e5576103e5926103b08b9387935f916105ce57506106a0565b895163095ea7b360e01b81526001600160a01b038616818e01908152602081019390935293849283915f918391604090910190565b03925af19081156105c4575f916105a7575b501561056c57831690813b15610225575f91602483928851948593849263b6b55f2560e01b84528d8401525af180156105625761054f575b50169082516370a0823160e01b815230868201528481602481865afa908115610545578791610518575b5080610463578680f35b835163a9059cbb60e01b81526001600160a01b0390921686830190815260208101919091529091849183919082908990829060400103925af190811561050e5785916104f1575b50156104b7578080808680f35b5162461bcd60e51b815291820152601660248201527514995dd85c99081d1c985b9cd9995c8819985a5b195960521b604482015260649150fd5b6105089150833d85116101e3576101d58183610666565b5f6104aa565b82513d87823e3d90fd5b90508481813d831161053e575b61052f8183610666565b8101031261022557515f610459565b503d610525565b84513d89823e3d90fd5b61055a91975061063e565b5f955f61042f565b85513d5f823e3d90fd5b855162461bcd60e51b81528089018890526015602482015274151bdad95b88185c1c1c9bdd985b0819985a5b1959605a1b6044820152606490fd5b6105be9150883d8a116101e3576101d58183610666565b5f6103f7565b87513d5f823e3d90fd5b6101dd9150853d87116101e3576101d58183610666565b88513d5f823e3d90fd5b60a0906003190112610225576001600160a01b03906004358281168103610225579160243581811681036102255791604435828116810361022557916064359081168103610225579060843590565b67ffffffffffffffff811161065257604052565b634e487b7160e01b5f52604160045260245ffd5b90601f8019910116810190811067ffffffffffffffff82111761065257604052565b90816020910312610225575180151581036102255790565b156106a757565b60405162461bcd60e51b8152602060048201526015602482015274151bdad95b881d1c985b9cd9995c8819985a5b1959605a1b6044820152606490fdfea264697066735822122065267a2c9e5c2f6acdc4fd1ba98e5b68d5f520cf563252790f363cdf825991d464736f6c63430008180033",
  "linkReferences": {},
  "deployedLinkReferences": {}
}