{
  "_format": "hh-sol-artifact-1",
  "contractName": "XucreETF",
  "sourceName": "contracts/XucreETF.sol",
  "abi": [
    {
      "inputs": [
        {
          "internalType": "address",
          "name": "owner_xucre",
          "type": "address"
        },
        {
          "internalType": "address",
          "name": "swapRouter_xucre",
          "type": "address"
        },
        {
          "internalType": "address",
          "name": "permit_xucre",
          "type": "address"
        },
        {
          "internalType": "address",
          "name": "tokenContract_xucre",
          "type": "address"
        },
        {
          "internalType": "uint24",
          "name": "poolFee_xucre",
          "type": "uint24"
        }
      ],
      "stateMutability": "nonpayable",
      "type": "constructor"
    },
    {
      "inputs": [],
      "name": "AccessControlBadConfirmation",
      "type": "error"
    },
    {
      "inputs": [
        {
          "internalType": "address",
          "name": "account",
          "type": "address"
        },
        {
          "internalType": "bytes32",
          "name": "neededRole",
          "type": "bytes32"
        }
      ],
      "name": "AccessControlUnauthorizedAccount",
      "type": "error"
    },
    {
      "inputs": [],
      "name": "EnforcedPause",
      "type": "error"
    },
    {
      "inputs": [],
      "name": "ExpectedPause",
      "type": "error"
    },
    {
      "anonymous": false,
      "inputs": [
        {
          "indexed": false,
          "internalType": "address",
          "name": "account",
          "type": "address"
        }
      ],
      "name": "Paused",
      "type": "event"
    },
    {
      "anonymous": false,
      "inputs": [
        {
          "indexed": true,
          "internalType": "bytes32",
          "name": "role",
          "type": "bytes32"
        },
        {
          "indexed": true,
          "internalType": "bytes32",
          "name": "previousAdminRole",
          "type": "bytes32"
        },
        {
          "indexed": true,
          "internalType": "bytes32",
          "name": "newAdminRole",
          "type": "bytes32"
        }
      ],
      "name": "RoleAdminChanged",
      "type": "event"
    },
    {
      "anonymous": false,
      "inputs": [
        {
          "indexed": true,
          "internalType": "bytes32",
          "name": "role",
          "type": "bytes32"
        },
        {
          "indexed": true,
          "internalType": "address",
          "name": "account",
          "type": "address"
        },
        {
          "indexed": true,
          "internalType": "address",
          "name": "sender",
          "type": "address"
        }
      ],
      "name": "RoleGranted",
      "type": "event"
    },
    {
      "anonymous": false,
      "inputs": [
        {
          "indexed": true,
          "internalType": "bytes32",
          "name": "role",
          "type": "bytes32"
        },
        {
          "indexed": true,
          "internalType": "address",
          "name": "account",
          "type": "address"
        },
        {
          "indexed": true,
          "internalType": "address",
          "name": "sender",
          "type": "address"
        }
      ],
      "name": "RoleRevoked",
      "type": "event"
    },
    {
      "anonymous": false,
      "inputs": [
        {
          "indexed": false,
          "internalType": "address",
          "name": "account",
          "type": "address"
        }
      ],
      "name": "Unpaused",
      "type": "event"
    },
    {
      "stateMutability": "payable",
      "type": "fallback"
    },
    {
      "inputs": [],
      "name": "BATCH_CALL_ROLE",
      "outputs": [
        {
          "internalType": "bytes32",
          "name": "",
          "type": "bytes32"
        }
      ],
      "stateMutability": "view",
      "type": "function"
    },
    {
      "inputs": [],
      "name": "DEFAULT_ADMIN_ROLE",
      "outputs": [
        {
          "internalType": "bytes32",
          "name": "",
          "type": "bytes32"
        }
      ],
      "stateMutability": "view",
      "type": "function"
    },
    {
      "inputs": [],
      "name": "PAUSER_ROLE",
      "outputs": [
        {
          "internalType": "bytes32",
          "name": "",
          "type": "bytes32"
        }
      ],
      "stateMutability": "view",
      "type": "function"
    },
    {
      "inputs": [
        {
          "internalType": "uint256",
          "name": "amount_xucre",
          "type": "uint256"
        },
        {
          "internalType": "uint256",
          "name": "bps_xucre",
          "type": "uint256"
        }
      ],
      "name": "calculateFromPercent",
      "outputs": [
        {
          "internalType": "uint256",
          "name": "",
          "type": "uint256"
        }
      ],
      "stateMutability": "pure",
      "type": "function"
    },
    {
      "inputs": [],
      "name": "feeToken",
      "outputs": [
        {
          "internalType": "address",
          "name": "",
          "type": "address"
        }
      ],
      "stateMutability": "view",
      "type": "function"
    },
    {
      "inputs": [],
      "name": "feesPaused",
      "outputs": [
        {
          "internalType": "bool",
          "name": "",
          "type": "bool"
        }
      ],
      "stateMutability": "view",
      "type": "function"
    },
    {
      "inputs": [
        {
          "internalType": "bytes32",
          "name": "role",
          "type": "bytes32"
        }
      ],
      "name": "getRoleAdmin",
      "outputs": [
        {
          "internalType": "bytes32",
          "name": "",
          "type": "bytes32"
        }
      ],
      "stateMutability": "view",
      "type": "function"
    },
    {
      "inputs": [
        {
          "internalType": "bytes32",
          "name": "role",
          "type": "bytes32"
        },
        {
          "internalType": "address",
          "name": "account",
          "type": "address"
        }
      ],
      "name": "grantRole",
      "outputs": [],
      "stateMutability": "nonpayable",
      "type": "function"
    },
    {
      "inputs": [
        {
          "internalType": "bytes32",
          "name": "role",
          "type": "bytes32"
        },
        {
          "internalType": "address",
          "name": "account",
          "type": "address"
        }
      ],
      "name": "hasRole",
      "outputs": [
        {
          "internalType": "bool",
          "name": "",
          "type": "bool"
        }
      ],
      "stateMutability": "view",
      "type": "function"
    },
    {
      "inputs": [],
      "name": "pause",
      "outputs": [],
      "stateMutability": "nonpayable",
      "type": "function"
    },
    {
      "inputs": [],
      "name": "paused",
      "outputs": [
        {
          "internalType": "bool",
          "name": "",
          "type": "bool"
        }
      ],
      "stateMutability": "view",
      "type": "function"
    },
    {
      "inputs": [],
      "name": "permit",
      "outputs": [
        {
          "internalType": "contract IPermit2",
          "name": "",
          "type": "address"
        }
      ],
      "stateMutability": "view",
      "type": "function"
    },
    {
      "inputs": [],
      "name": "poolFee",
      "outputs": [
        {
          "internalType": "uint24",
          "name": "",
          "type": "uint24"
        }
      ],
      "stateMutability": "view",
      "type": "function"
    },
    {
      "inputs": [
        {
          "internalType": "bytes32",
          "name": "role",
          "type": "bytes32"
        },
        {
          "internalType": "address",
          "name": "callerConfirmation",
          "type": "address"
        }
      ],
      "name": "renounceRole",
      "outputs": [],
      "stateMutability": "nonpayable",
      "type": "function"
    },
    {
      "inputs": [
        {
          "internalType": "bytes32",
          "name": "role",
          "type": "bytes32"
        },
        {
          "internalType": "address",
          "name": "account",
          "type": "address"
        }
      ],
      "name": "revokeRole",
      "outputs": [],
      "stateMutability": "nonpayable",
      "type": "function"
    },
    {
      "inputs": [],
      "name": "router",
      "outputs": [
        {
          "internalType": "contract IUniversalRouter",
          "name": "",
          "type": "address"
        }
      ],
      "stateMutability": "view",
      "type": "function"
    },
    {
      "inputs": [
        {
          "internalType": "address",
          "name": "to_xucre",
          "type": "address"
        },
        {
          "internalType": "address[]",
          "name": "targetTokens_xucre",
          "type": "address[]"
        },
        {
          "internalType": "uint256[]",
          "name": "inputAmounts_xucre",
          "type": "uint256[]"
        },
        {
          "internalType": "uint24[]",
          "name": "poolFees_xucre",
          "type": "uint24[]"
        },
        {
          "internalType": "address",
          "name": "paymentToken_xucre",
          "type": "address"
        },
        {
          "internalType": "uint256",
          "name": "totalIn_xucre",
          "type": "uint256"
        }
      ],
      "name": "spotExecution",
      "outputs": [],
      "stateMutability": "nonpayable",
      "type": "function"
    },
    {
      "inputs": [
        {
          "internalType": "bytes4",
          "name": "interfaceId",
          "type": "bytes4"
        }
      ],
      "name": "supportsInterface",
      "outputs": [
        {
          "internalType": "bool",
          "name": "",
          "type": "bool"
        }
      ],
      "stateMutability": "view",
      "type": "function"
    },
    {
      "inputs": [],
      "name": "unpause",
      "outputs": [],
      "stateMutability": "nonpayable",
      "type": "function"
    },
    {
      "inputs": [
        {
          "internalType": "uint24",
          "name": "xucre_fee",
          "type": "uint24"
        },
        {
          "internalType": "address",
          "name": "xucre_tokenAddress",
          "type": "address"
        },
        {
          "internalType": "bool",
          "name": "xucre_feesPaused",
          "type": "bool"
        }
      ],
      "name": "update",
      "outputs": [],
      "stateMutability": "nonpayable",
      "type": "function"
    },
    {
      "inputs": [
        {
          "internalType": "address",
          "name": "xucre_to",
          "type": "address"
        }
      ],
      "name": "withdrawBalance",
      "outputs": [],
      "stateMutability": "nonpayable",
      "type": "function"
    },
    {
      "inputs": [
        {
          "internalType": "address",
          "name": "xucre_to",
          "type": "address"
        },
        {
          "internalType": "address",
          "name": "xucre_tokenAddress",
          "type": "address"
        }
      ],
      "name": "withdrawTokenBalance",
      "outputs": [],
      "stateMutability": "nonpayable",
      "type": "function"
    },
    {
      "stateMutability": "payable",
      "type": "receive"
    }
  ],
  "bytecode": "0x61012034620001df57601f6200197238819003918201601f19168301916001600160401b03831184841017620001e35780849260a094604052833981010312620001df576200004e81620001f7565b906200005d60208201620001f7565b916200006c60408301620001f7565b9260806200007d60608501620001f7565b9301519162ffffff83168303620001df575f805460ff1916815560c0526002805460ff60b81b1916600160b81b1790557f65d7a28e3265b37a6474929f336521b332c1681b933f6cb9f3376673440d862a6080527f3fc7735c85a339a1b1daf5a92efc57ff14e2074379b26c7a2cf4384435ea308460a0526200011e9062000105816200020c565b5062000114816080516200027c565b5060a0516200027c565b506001600160a01b0390811660e052928316610100908152600280546001600160b81b031916939094169290921760a09190911b62ffffff60a01b16179091556040516116489182620002ea83396080518281816101ed0152818161048001526105fd015260a0518261070f015260c0518281816109e60152610b9b015260e0518281816101a301528181610a9e01528181610af901528181610c5d0152610e280152518181816105b801528181610d7b01528181610dd70152610e740152f35b5f80fd5b634e487b7160e01b5f52604160045260245ffd5b51906001600160a01b0382168203620001df57565b6001600160a01b03165f8181525f8051602062001952833981519152602052604090205460ff1662000277575f8181525f805160206200195283398151915260205260408120805460ff191660011790553391905f80516020620019328339815191528180a4600190565b505f90565b90815f52600160205260405f209060018060a01b031690815f5260205260ff60405f205416155f14620002e357815f52600160205260405f20815f5260205260405f20600160ff1982541617905533915f80516020620019328339815191525f80a4600190565b50505f9056fe6080806040526004361015610095575b50361561005b5760405162461bcd60e51b815260206004820152601760248201527f46756e6374696f6e20646f6573206e6f742065786973740000000000000000006044820152606490fd5b60405162461bcd60e51b8152602060048201526012602482015271115d1a195c881b9bdd081858d8d95c1d195960721b6044820152606490fd5b5f905f3560e01c908162094e7c146111025750806301ffc9a7146110ac578063089fe6aa1461108757806319569a141461075e578063248a9ca314610732578063285877fb146106f75780632f2ff15d146106b957806336568abe146106715780633f4ba83a146105e75780635777e93d146105a25780635c975abb14610580578063647846a514610557578063756af45f146104f75780638456cb591461046a57806391d1485414610420578063981d19b01461039e578063a217fddf14610382578063bb29578a1461027c578063d547741f1461023a578063df32135614610210578063e63ab1e9146101d55763f887ea400361000f57346101d257806003193601126101d2576040517f00000000000000000000000000000000000000000000000000000000000000006001600160a01b03168152602090f35b80fd5b50346101d257806003193601126101d25760206040517f00000000000000000000000000000000000000000000000000000000000000008152f35b50346101d25760403660031901126101d25760206102326024356004356111cd565b604051908152f35b50346101d25760403660031901126101d25761027860043561025a61113a565b9080845260016020526102736001604086200154611436565b6114f4565b5080f35b50346101d25760403660031901126101d25780610297611124565b61029f61113a565b6102a76113e0565b6001600160a01b0382166102b9575050f35b818361030061030e6102cc858497611568565b60405163a9059cbb60e01b602082019081526001600160a01b03909616602482015260448101919091529182906064820190565b03601f198101835282611180565b51925af161031a6115d3565b81610353575b50156103295780f35b60405162461bcd60e51b815260206004820152600260248201526114d560f21b6044820152606490fd5b8051801592508215610368575b50505f610320565b61037b92506020809183010191016112a4565b5f80610360565b50346101d257806003193601126101d257602090604051908152f35b50346101d25760603660031901126101d25760043562ffffff8116810361041c576103c761113a565b90604435801515809103610418576103dd6113e0565b6002549060ff60b81b9060b81b169260018060a01b03169067ffffffffffffffff60c01b16179062ffffff60a01b9060a01b16171760025580f35b8380fd5b5f80fd5b50346101d25760403660031901126101d257604061043c61113a565b9160043581526001602052209060018060a01b03165f52602052602060ff60405f2054166040519015158152f35b50346101d257806003193601126101d2576104a47f0000000000000000000000000000000000000000000000000000000000000000611436565b805460ff81166104e55760019060ff19161781557f62e78cea01bee320cd4e420270b5ea74000d11b0c9f74754ebdbfc544b05a2586020604051338152a180f35b60405163d93c066560e01b8152600490fd5b50346101d25760203660031901126101d25780610512611124565b61051a6113e0565b6001600160a01b03168061052b5750f35b81808092479082821561054e575bf1156105425780f35b604051903d90823e3d90fd5b506108fc610539565b50346101d257806003193601126101d2576002546040516001600160a01b039091168152602090f35b50346101d257806003193601126101d25760ff60209154166040519015158152f35b50346101d257806003193601126101d2576040517f00000000000000000000000000000000000000000000000000000000000000006001600160a01b03168152602090f35b50346101d257806003193601126101d2576106217f0000000000000000000000000000000000000000000000000000000000000000611436565b805460ff81161561065f5760ff191681557f5db9ee0a495bf2e6ff9c91a7834c1ba4fdd244a5e8aa4e537bd38aeae4b073aa6020604051338152a180f35b604051638dfc202b60e01b8152600490fd5b50346101d25760403660031901126101d25761068b61113a565b336001600160a01b038216036106a757610278906004356114f4565b60405163334bd91960e11b8152600490fd5b50346101d25760403660031901126101d2576102786004356106d961113a565b9080845260016020526106f26001604086200154611436565b611476565b50346101d257806003193601126101d25760206040517f00000000000000000000000000000000000000000000000000000000000000008152f35b50346101d25760203660031901126101d257600160406020926004358152828452200154604051908152f35b503461041c5760c036600319011261041c57610778611124565b906024359067ffffffffffffffff821161041c573660238301121561041c5781600401356107a5816111a2565b926107b36040519485611180565b8184526024602085019260051b8201019036821161041c57602401915b818310611067575050506044359067ffffffffffffffff821161041c573660238301121561041c57816004013591610807836111a2565b926108156040519485611180565b8084526024602085019160051b8301019136831161041c57602401905b828210611057575050506064359267ffffffffffffffff841161041c573660238501121561041c578360040135610868816111a2565b946108766040519687611180565b8186526024602087019260051b8201019036821161041c57602401915b81831061103b575050506084356001600160a01b038116900361041c5761012c420142116108fb57805183518091149081611030575b5015610feb575f94855b845187101561090f576108e6878661124d565b5181018091116108fb576001909601956108d3565b634e487b7160e01b5f52601160045260245ffd5b612710869195949503610f9b576084356001600160a01b031615610f8a5761094660a43561093f60843585611568565b1015611261565b60025460b81c60ff1615610f625760a4355b6084356001600160a01b0316610cf7575b60025460ff8160b81c1615610b77575b50855b8451811015610b7357610999610992828861124d565b51836111cd565b62ffffff6109a7838661124d565b51166001600160a01b036109bb848961124d565b5116604051926109ca84611164565b6001845260203681860137835115610b5f5790610a888b9493927f0000000000000000000000000000000000000000000000000000000000000000861a6020860153610a146112bc565b604051608435606090811b6bffffffffffffffffffffffff19908116602084015260e89790971b6001600160e81b03191660348301529490941b9094166037840152602b8352601f1990610a69604b85611180565b610a7c6040519485928d6020850161132e565b03908101835282611180565b610a918261122c565b52610a9b8161122c565b507f00000000000000000000000000000000000000000000000000000000000000006001600160a01b03163b15610b5b57604051630d64d59360e21b815291839183918291610af4914261012c01919060048501611364565b03815f7f00000000000000000000000000000000000000000000000000000000000000006001600160a01b03165af18015610b5057610b38575b505060010161097c565b610b4190611150565b610b4c578688610b2e565b8680fd5b6040513d84823e3d90fd5b8280fd5b634e487b7160e01b8b52603260045260248bfd5b8680f35b60405190610b8482611164565b6001825260203681840137815115610ce3579087917f0000000000000000000000000000000000000000000000000000000000000000831a6020830153610a7c610c47610c1d610bd26112bc565b604051608435606090811b6bffffffffffffffffffffffff199081166020840152604888901b6001600160e81b031916603484015296901b909516603786015293908190604b820190565b0390610c31601f1992838101835282611180565b604051938491603260a43504306020850161132e565b610c508261122c565b52610c5a8161122c565b507f00000000000000000000000000000000000000000000000000000000000000006001600160a01b031691823b1561041857610cb69284925f604051809681958294630d64d59360e21b845261012c42019160048501611364565b03925af18015610b5057610ccb575b50610979565b610cd490611150565b610cdf578587610cc5565b8580fd5b634e487b7160e01b88526032600452602488fd5b6040516323b872dd60e01b60208201526001600160a01b038416602482015230604482015260a435606480830191909152815267ffffffffffffffff60a0820190811190821117610f4e575f8160a0829301604052602081519101826084355af1610d606115d3565b81610f1f575b5015610ef45760405163095ea7b360e01b81527f00000000000000000000000000000000000000000000000000000000000000006001600160a01b0316600482015260a4356024820152602081806044810103815f6084356001600160a01b03165af18015610eba57610ec5575b507f00000000000000000000000000000000000000000000000000000000000000006001600160a01b03163b1561041c576040516387517c4560e01b8152608480356001600160a01b0390811660048401527f00000000000000000000000000000000000000000000000000000000000000008116602484015260a435811660448401524261012c0165ffffffffffff1660648401525f918391829084907f0000000000000000000000000000000000000000000000000000000000000000165af18015610eba57610ea7575b50610969565b610eb2919650611150565b5f9486610ea1565b6040513d5f823e3d90fd5b610ee69060203d602011610eed575b610ede8183611180565b8101906112a4565b5086610dd4565b503d610ed4565b60405162461bcd60e51b815260206004820152600360248201526229aa2360e91b6044820152606490fd5b8051801592508215610f34575b505087610d66565b610f4792506020809183010191016112a4565b8780610f2c565b634e487b7160e01b5f52604160045260245ffd5b603260a4350460a4350360a43581111561095857634e487b7160e01b5f52601160045260245ffd5b610f9660a43515611261565b610946565b60405162461bcd60e51b815260206004820152602260248201527f496e70757420616d6f756e7473206d7573742061646420757020746f20313030604482015261030360f41b6064820152608490fd5b60405162461bcd60e51b815260206004820152601860248201527f496e76616c696420696e70757420706172616d657465727300000000000000006044820152606490fd5b90508451145f6108c9565b823562ffffff8116810361041c57815260209283019201610893565b8135815260209182019101610832565b82356001600160a01b038116810361041c578152602092830192016107d0565b3461041c575f36600319011261041c57602062ffffff60025460a01c16604051908152f35b3461041c57602036600319011261041c5760043563ffffffff60e01b811680910361041c57602090637965db0b60e01b81149081156110f1575b506040519015158152f35b6301ffc9a760e01b149050826110e6565b3461041c575f36600319011261041c5760209060ff60025460b81c1615158152f35b600435906001600160a01b038216820361041c57565b602435906001600160a01b038216820361041c57565b67ffffffffffffffff8111610f4e57604052565b6040810190811067ffffffffffffffff821117610f4e57604052565b90601f8019910116810190811067ffffffffffffffff821117610f4e57604052565b67ffffffffffffffff8111610f4e5760051b60200190565b818102929181159184041417156108fb57565b61271091826111dc82846111ba565b106111ee576111ea916111ba565b0490565b60405162461bcd60e51b8152602060048201526016602482015275496e76616c696420616d6f756e7420656e747269657360501b6044820152606490fd5b8051156112395760200190565b634e487b7160e01b5f52603260045260245ffd5b80518210156112395760209160051b010190565b1561126857565b60405162461bcd60e51b8152602060048201526014602482015273496e73756666696369656e742062616c616e636560601b6044820152606490fd5b9081602091031261041c5751801515810361041c5790565b6040516112c881611164565b60018152805f5b6020808210156112ea579060606020928285010152016112cf565b50505090565b91908251928382525f5b84811061131a575050825f602080949584010152601f8019910116010190565b6020818301810151848301820152016112fa565b939261135f90600193608093858060a01b03168752602087015283604087015260a0606087015260a08601906112f0565b930152565b9392919061137a906060865260608601906112f0565b906020858303818701528151908184528084019381808460051b8301019401945f915b8483106113b257505050505060409150930152565b909192939484806113cf600193601f198682030187528a516112f0565b98019301930191959493929061139d565b335f9081527fa6eef7e35abe7026729641147f7915573c7e97b47efa546f5f6e3230263bcb49602052604090205460ff161561141857565b60405163e2517d3f60e01b81523360048201525f6024820152604490fd5b805f52600160205260405f20335f5260205260ff60405f205416156114585750565b6044906040519063e2517d3f60e01b82523360048301526024820152fd5b90815f52600160205260405f209060018060a01b031690815f5260205260ff60405f205416155f146114ee57815f52600160205260405f20815f5260205260405f20600160ff1982541617905533917f2f8788117e7eff1d82e926ec794901d17c78024a50270940304540a733656f0d5f80a4600190565b50505f90565b90815f52600160205260405f209060018060a01b031690815f5260205260ff60405f2054165f146114ee57815f52600160205260405f20815f5260205260405f2060ff19815416905533917ff6391f5c32d9c69d2a47ea670b442974b53935d1edc7fd64eb21e047a839171b5f80a4600190565b6040516370a0823160e01b81526001600160a01b0391821660048201529160209183916024918391165afa908115610eba575f916115a4575090565b90506020813d6020116115cb575b816115bf60209383611180565b8101031261041c575190565b3d91506115b2565b3d1561160d573d9067ffffffffffffffff8211610f4e5760405191611602601f8201601f191660200184611180565b82523d5f602084013e565b60609056fea26469706673582212203be8667956df020c43c56e4787c3209f40b28268c08e7160227c6469069db76364736f6c634300081800332f8788117e7eff1d82e926ec794901d17c78024a50270940304540a733656f0da6eef7e35abe7026729641147f7915573c7e97b47efa546f5f6e3230263bcb49",
  "linkReferences": {},
  "deployedLinkReferences": {}
}